:020000040800F2
:10000000700A002089010008B9180008C10C000816
:1000100079170008E90A0008A5250008000000007B
:10002000000000000000000000000000ED1B0008C0
:10003000450B000800000000AD1900086D1D000808
:10004000A3010008A3010008A3010008A301000800
:10005000A3010008A3010008A3010008A3010008F0
:10006000A3010008A3010008A3010008290B000850
:10007000A3010008A3010008A3010008A3010008D0
:10008000A3010008A3010008A3010008A3010008C0
:10009000A3010008A3010008A3010008A3010008B0
:1000A000A3010008A3010008A3010008A3010008A0
:1000B000A3010008A3010008A3010008A301000890
:1000C000A3010008A3010008A3010008F519000816
:1000D000CD1A0008092100083D21000871210008FF
:1000E000A3010008A3010008CD18000800000000CB
:1000F0000000000000000000000000000000000000
:1001000000000000A3010008A30100080000000097
:10011000A3010008A3010008000000000000000087
:10012000A3010008A3010008A3010008A30100081F
:1001300000000000000000000000000000000000BF
:10014000000000000000000000000000BD180008D2
:100150000000000000000000A3010008A301000847
:10016000000000000000000000000000A3010008E3
:10017000DFF810D000F002FB0048004715330008FC
:10018000AFF30080700A0020064880470648004709
:10019000FEE7FEE7FEE7FEE7FEE7FEE7FEE7FEE737
:1001A000FEE7FEE7991E0008710100082DE9F05FE7
:1001B0000546002092469B468846064681464024D6
:1001C0001BE0284641464746224600F021FA5346A6
:1001D0005A46C01A914110D311461846224600F0E3
:1001E00008FA2D1A67EB01084F462246012000212C
:1001F00000F0FFF917EB00094E41201EA4F10104A5
:10020000DFDC484631462A464346BDE8F09FD2B27D
:1002100001E000F8012B491EFBD270470022F6E7EF
:1002200010B513460A4604461946FFF7F0FF20466C
:1002300010BD421C10F8011B0029FBD1801A704729
:1002400080EA010210B502F00043400022D04A00CB
:100250001FD0010E01EB1261C0F35600C2F356022B
:1002600040F4000042F40002A0FB022000047F39A9
:10027000140400D0401C50EA124001D44000491E32
:10028000C2B20C0604EBD010401C4008802A02D0F9
:1002900003E0002010BD20F00100002900DA00205A
:1002A000184310BD30B480EA010202F0004530F07E
:1002B000004221F0004013D090B1C30DD40DC2F321
:1002C0001601C0F31600E41A41F4000140F40002E4
:1002D0007D34914201D3641C00E04900002C02DA15
:1002E00030BC002070474FF400000023914201D33E
:1002F000891A034340084FEA4101F7D151B19142B5
:1003000002D14FF0004105E002D24FF0010101E0BF
:100310006FF0010103EBC450284430BC00F09AB9DF
:100320002DE9FE4F804681EA0300C00F0C46009085
:1003300021F0004123F00045B8EB0200A94105D2AD
:100340004046214690461C460B46024623F000409C
:10035000104347D0270DC7F30A00C3F30A51029098
:10036000401A019040286BDAC3F3130040F4801B5D
:100370000098924620B10023D2EB030A63EB0B0BEB
:1003800001985946C0F14002504600F032F9064645
:100390000D4650465946019A00F04AF910EB080004
:1003A0006141002487EA115284EAE7731A4340D07E
:1003B000009A62B3019A012A4FEA075215DC001B2A
:1003C00061EB02014FF0004202EA0752CDE9004220
:1003D000001C41F5801132462B4600F081F903B034
:1003E000BDE8F08F40462146F9E7001B61EB0201B2
:1003F000001C41F5801300185B412018A2F500177E
:1004000047EB030140EAD570B6196D4111E06D0864
:100410004FEA360645EAC0754FEA0752001B61EB0A
:100420000201001C41F5801149084FEA3000001913
:10043000514132462B4603B0BDE8F04F00F041B9C0
:100440000098012240000023D0EB020263EBE0732E
:10045000009821464FEAE074B8EB000061EB04011C
:10046000E9E783F000435BE781F0004158E72DE9BD
:10047000F04D81EA030404F0004B21F000451446DE
:100480004FF0000A23F0004150EA050220D054EA60
:1004900001021DD0C5F30A570246C5F31303C1F389
:1004A0001300C1F30A5640F4801543F48013A7EB00
:1004B0000608101BD64608F2FD3873EB050002D380
:1004C00008F1010801E092185B41B8F1000F03DA6E
:1004D00000200146BDE8F08D00204FF48011064653
:1004E00084460EE0171B73EB050705D3121B63EB65
:1004F000050306434CEA010C49084FEA3000921804
:100500005B4150EA0107EDD152EA030012D082EAC2
:10051000040083EA0501084305D0101BAB4106D255
:100520000122002306E000224FF0004302E06FF0BA
:10053000010253101AEB06004CEB085110EB0A00B5
:1005400041EB0B01BDE8F04D00F0BBB8C10F80EAF4
:10055000E0700844CA079623002100F084B896236F
:100560000022114600F07FB800F0004230F0004059
:100570000AD0C10D01F56071C0F3160042EA0151C5
:10058000C20840071143704700200146704701F040
:10059000004330B421F0004150EA010206D00A0DB8
:1005A000A2F56072C1F31301002A02DC30BC002006
:1005B0007047440F44EAC104C100E01830BC00EBAE
:1005C000C25000F047B830B50B460146002020224B
:1005D000012409E021FA02F59D4205D303FA02F550
:1005E000491B04FA02F52844151EA2F10102F1DCB0
:1005F00030BD202A04DB203A00FA02F100207047C7
:100600009140C2F1200320FA03F319439040704750
:10061000202A04DB203A21FA02F00021704721FA57
:1006200002F3D040C2F120029140084319467047BE
:10063000202A06DBCB17203A41FA02F043EAE073A6
:1006400006E041FA02F3D040C2F120029140084393
:10065000194670470029A8BF7047401C490008BFD1
:1006600020F00100704710B4B0FA80FC00FA0CF0E2
:1006700050EA010404BF10BC704749B1CCF120041A
:1006800021FA04F411FA0CF118BF012121430843A7
:10069000A3EB0C01CB1D4FEA00614FEA102042BFD3
:1006A000002010BC704700EBC35010440029A4BFC9
:1006B00010BC7047401C490008BF20F0010010BC6E
:1006C000704710B5141E73F1000408DA401C41F1A4
:1006D000000192185B411A4301D120F0010010BDC6
:1006E0002DE9F04D92469B4611B1B1FA81F202E03C
:1006F000B0FA80F220329046FFF77BFF04460F46A7
:1007000040EA0A0041EA0B0153465A46084313D017
:10071000114653EA010019D0C8F140025046FFF7D4
:1007200077FF05460E46504659464246FFF761FFA1
:10073000084305D0012004E020463946BDE8F08D8D
:100740000020054346EAE0762C4337430A986305C8
:10075000E40AA0EB08000022FD0A44EA47540A30EC
:1007600002D500200146E9E7010510196941DDE9DC
:10077000084500196941BDE8F04DA2E7064C074D58
:1007800006E0E06840F0010394E807009847103461
:10079000AC42F6D3FFF7F0FC1C4302083C430208CE
:1007A00030B585B004460D46684602F072FC012162
:1007B0004FF4A01002F03CFB002211460B2002F087
:1007C00047FE154802F0D0FCA8B2ADF80A000020A0
:1007D000ADF8080001941148009001208DF80F0039
:1007E0008DF80D008DF80E0000208DF80C00022011
:1007F0008DF8110001208DF810006946064802F0BE
:100800007BFC01220221044802F0A4FC01210248E1
:1008100002F03AFC05B030BD080002404C24014013
:1008200070B504462046FFF791FE05464FF08B4118
:100830002846FFF737FD0546034801682846FFF7BD
:10084000FFFC0546284670BD0C0000201CB5044680
:10085000684602F0D0FC04B91CBD0121174802F023
:10086000E7FA01211548401C02F0E2FA03208DF856
:10087000060004208DF8050000200090009840F04C
:1008800001000090009840F002000090009840F0B5
:100890000400009069460A4802F0B8FC002000906D
:1008A000009840F001000090009840F00200009095
:1008B0006946044802F0AAFC00BFCDE70200180018
:1008C00000080140000C014010B50F4800681228D4
:1008D00000DD10BD002004E000210C4A22F81010B9
:1008E000401C094909688842F6DB0121084802F0EA
:1008F00018F900BF074800880028FBD000200549F0
:10090000088000BFE5E70000140000206C00002014
:1009100000240140180000202DE9FE4F0020029025
:1009200001211B4802F0FDF800BF1A48008800288A
:10093000FBD000201749088017490968491E174A4B
:1009400032F81100FFF70BFE02901548016802987B
:10095000FFF776FC4FF08B410090FFF7A3FC01906E
:10096000FFF702FE80460F4A0F4BFFF77DFD06465C
:100970000E4A0F4BFFF77BFD044600220D4BFFF79D
:10098000CFFC8246FFF703FE02900298BDE8FE8F7F
:100990000024014018000020140000206C000020FA
:1009A0000C000020295C8FC2F528F43F33E197FA50
:1009B000795371BF0000394038B5054601213948E7
:1009C00002F036FA022002F0BBF82846FFF73EFF9D
:1009D00001242246641C07230021334801F0BDFF97
:1009E0002246641C072301212F4801F0B6FF22464E
:1009F000641C072302212C4801F0AFFF2246641C2F
:100A000007230821284801F0A8FF2246641C072379
:100A10000921254801F0A1FF2246641C072310216B
:100A2000214801F09AFF012002F080F8601E1F4962
:100A30000860084601681E48FFF7B2FE684601F0EC
:100A40005DFF01208DF8000000208DF801008DF879
:100A50000200164800788DF803006946124801F03C
:100A600037FF01220721104802F041F801210E480A
:100A700001F069FF01210C4801F06AFF0A4801F00A
:100A800044FF00BF084801F046FF0028FAD106489D
:100A900001F04AFF00BF044801F04CFF0028FAD1E2
:100AA00038BD000009001800002401401400002097
:100AB0006C0000200648074908600748486007495D
:100AC000044881600649C1600648024908617047D0
:100AD000050B000858060020C50C0008F91C00088A
:100AE000D9180008550B000800BFFEE7024682EA4D
:100AF0002120034B33F8100080EA012080B27047B8
:100B0000E240020870B504460D46002605E0207854
:100B10003146FFF7EBFF0646641C281EA5F10101D4
:100B20008DB2F4D1304670BD10B5022002F0CEFA7D
:100B300028B1022002F0BAFA01200149088010BD54
:100B400018000020704710B504462146032001F02C
:100B500098FA10BD30B50346002005E00446401C5D
:100B60001C5D8C4200D130BD9042F7D30020FAE7E3
:100B7000F0B500BF4FF0E02080690D490968081A00
:100B80000C49486008460268002309480068C617F7
:100B90001446A4FB001703FB007002FB06030A4681
:100BA00004484068821843F1000310461946F0BD1E
:100BB000240000203000002013B582B000246846D5
:100BC00000F034F803990198441A002C05DA9DF8D6
:100BD0000200401EC0B28DF802009DF802009DF890
:100BE0000A10401A43F6095110FB01F004EB80147F
:100BF000204604B010BD0246107D022813DA012001
:100C000010711388581C108002F11500C1547D2901
:100C100001D1022010751088C82801DD032010754D
:100C200002F115009060107D704700002DE9FF472C
:100C30000446002002900390FFF79AFF05460E46F7
:100C40001B480268D31728463146FFF7AFFA8146A2
:100C50004946684601F050F8DDE90001CDE902019E
:100C6000144899FBF0F0002806DD00200290039064
:100C7000DDE9020101F068F80D480268D317284643
:100C80003146FFF793FA174619460B480268D31707
:100C90003846FFF78BFA03900848DDE902128160BD
:100CA000C260DDE90201C4E90001BDE8FF87000080
:100CB0005000002080510100580000203C0000201E
:100CC00000BFFEE703B59DF802109DF80120C2EBBE
:100CD000021201EB82019DF80020C2EB4213C3EB2C
:100CE000022201EB02100449884201DA014600E0C9
:100CF000014908460CBD0000805101001CB50446A6
:100D0000684602F078FAB4B10121124802F090F876
:100D10004FF40050009001208DF8070000208DF85E
:100D200004008DF8060018208DF8050069460A4871
:100D300002F06CFA0CE04FF40050009003208DF8A4
:100D4000060004208DF805006946034802F05EFAAB
:100D50001CBD0000040018000010014070B50546DD
:100D60000C4625B1012D03D0022D06D104E005E08B
:100D70002046FFF7C3FF01E000E000BF00BF70BDE9
:100D800070B50446012514B1012C08D100E007E03C
:100D90004FF40051044802F08DFA054600E000BF10
:100DA00000BF284670BD0000001001402DE9F04151
:100DB00007460C4615461E4635480078A8B92A2035
:100DC00000F0C6FB384600F0DDFB284600F0DAFBF9
:100DD0002B2000F0BDFB204600F0D4FB304600F095
:100DE000D1FB2C2000F0B4FB50E02948007801280A
:100DF00019D12A2000F0ACFB384600F0C3FB28468E
:100E000000F0C0FB2B2000F0A3FB04F1500188B2DE
:100E100000F0B8FB06F1500188B200F0B3FB2C20C3
:100E200000F096FB32E01A480078022815D12A20FB
:100E300000F08EFB384600F0A5FB284600F0A2FB30
:100E40002B2000F085FB204600F09CFB304600F094
:100E500099FB2C2000F07CFB18E02A2000F078FBA6
:100E600007F1500188B200F08DFB05F1500188B206
:100E700000F088FB2B2000F06BFB204600F082FB8B
:100E8000304600F07FFB2C2000F062FBBDE8F081D3
:100E90005E000020002106E042F2107200BF531EE7
:100EA0001A1EFCDC491C8142F6DB70472DE9F04735
:100EB00006460F46904699460025444641E07A1B77
:100EC00091B2321B90B24A4600F095F87A1B91B26B
:100ED000321990B24A4600F08EF83A1991B2721B5C
:100EE00090B24A4600F087F83A1B91B2721B90B25A
:100EF0004A4600F080F87A1991B2321990B24A4607
:100F000000F079F83A1B91B2721990B24A4600F09B
:100F100072F83A1991B2721990B24A4600F06BF821
:100F20007A1991B2321B90B24A4600F064F86D1CF7
:100F300005FB05F004FB040108FB08F0814200DD1D
:100F4000641EA542BBDDBDE8F0872DE9FF4F85B0EB
:100F500081468A460020039083460798A0EB090546
:100F60000898A0EB0A06CDF80890CDF804A0002D53
:100F700001DD012705E00DB9002702E04FF0FF3742
:100F80006D42002E02DD4FF0010806E016B94FF069
:100F9000000802E04FF0FF387642B54201DD2C46F2
:100FA00000E03446002004901EE0019A91B2029ABB
:100FB00090B2129A00F01FF8039828440390B344AB
:100FC0000398A04205DD0398001B03900298384463
:100FD0000290A34504DDABEB040B01984044019063
:100FE0000498401C80B20490611C04988842DCDBA9
:100FF00009B0BDE8F08F70B504460D4616462B4685
:10100000224629462046FFF7D1FE304600F0BAFAC4
:1010100070BD2DE9F84305460E4617469846089CD4
:1010200033463A46314628460094FFF78EFF434642
:101030002A46314628460094FFF787FF43463A4642
:10104000414628460094FFF780FF43463A46314622
:1010500038460094FFF779FFBDE8F8832DE9F047A3
:1010600006460F4614461D46DDF82090A01BE91BDE
:1010700000FB01F8681E83B2601E82B2394630461A
:10108000FFF794FE04E0484600F07CFAA8F101085E
:10109000B8F1000FF7DCBDE8F08700001CB504468E
:1010A000684602F0A8F8BCB10121124801F0C0FE68
:1010B0004FF48060009001208DF8070000208DF82B
:1010C000040010208DF8060004208DF80500694604
:1010D000094802F09BF80CE04FF480600090032078
:1010E0008DF8060004208DF805006946024802F0DC
:1010F0008DF81CBD020018000008014038B50446F8
:101100002046FFF7CBFF204600F026FDC820FFF762
:10111000C1FE112000F01CFA1420FFF7BBFE3620A0
:1011200000F016FA3220FFF7B5FE6A48007820B1C9
:10113000012806D002280CD107E0002000F033FA85
:101140000BE0C02000F02FFA07E0702000F02BFA2F
:1011500003E0A02000F027FA00BF00BF3A2000F013
:10116000F7F9052000F01FFAB22000F0F1F90C2089
:1011700000F019FA0C2000F016FA002000F013FA23
:10118000332000F010FA332000F00DFAB72000F001
:10119000DFF9352000F007FABB2000F0D9F919205B
:1011A00000F001FAC02000F0D3F92C2000F0FBF988
:1011B000C22000F0CDF9012000F0F5F9C32000F0C5
:1011C000C7F9122000F0EFF9C42000F0C1F9202087
:1011D00000F0E9F9C62000F0BBF90F2000F0E3F9B8
:1011E000D02000F0B5F9A42000F0DDF9A12000F036
:1011F000DAF9E02000F0ACF9D02000F0D4F90420B6
:1012000000F0D1F90D2000F0CEF9112000F0CBF95B
:10121000132000F0C8F92B2000F0C5F93F2000F0A2
:10122000C2F9542000F0BFF94C2000F0BCF918209E
:1012300000F0B9F90D2000F0B6F90B2000F0B3F979
:101240001F2000F0B0F9232000F0ADF9E12000F0FC
:101250007FF9D02000F0A7F9042000F0A4F90C20B9
:1012600000F0A1F9112000F09EF9132000F09BF985
:101270002C2000F098F93F2000F095F9442000F070
:1012800092F9512000F08FF92F2000F08CF91F20E7
:1012900000F089F91F2000F086F9202000F083F982
:1012A000232000F080F9212000F052F9112000F0F5
:1012B0004FF9292000F04CF9C820FFF7EBFD064854
:1012C0000088F0231A46002100900846FFF7C6FE6A
:1012D00038BD00005E0000205C0000202DE9FF5FAB
:1012E00007468A4690469B460F9D00200290009735
:1012F000284605EBD071C1F347042046E21704EB02
:101300005272D2102146E31704EB5373DB10A4EBA7
:10131000C3030BB1012300E000231A446A4392B2D5
:101320000192A8F1200000F0FF080AEB0500401E22
:1013300083B23819401E82B251463846FFF736FD57
:1013400000265BE0102D05D12F4800EB0810805DD2
:10135000039013E0182D07D108EB48002B4901EB4F
:101360000010805D039009E0202D05D1284800EB96
:101370008810805D039001E0BDE8FF9F4FF00009F9
:1013800036E01098C8B9012000FA09F00399084026
:1013900018B1584600F0F6F802E00E9800F0F2F8A6
:1013A0000298401CC0B20290029890FBF4F104FB3A
:1013B0001100C8B9002002901DE0012000FA09F0D8
:1013C0000399084020B15A4651463846FFF713FEAC
:1013D000781C87B20098381AA04205D1009F0AF104
:1013E00001001FFA80FA06E009F1010000F0FF0990
:1013F000B9F1080FC5DB00BF701C86B201988642A8
:10140000A0DB00BFB8E70000621102085217020813
:10141000222902082DE9FE470646894615469A46C6
:10142000DDE90C480B9F1CE0182C09D153462A46D5
:1014300049463046CDE90148009700F017F80DE025
:10144000202C09D153462A4649463046CDE9014869
:10145000009700F00FF801E0BDE8FE87AD1C3019E1
:1014600086B228780028DFD100BFF5E770B504AC5C
:1014700070CC70BD70B504AC70CC70BD2DE9F05F60
:101480000746884615461E46DDF82890002408EBDE
:101490000600401E83B27819401E82B2414638468B
:1014A000FFF784FCA24618E04FF0000B0FE019F89C
:1014B000140000F078F8012101EB440119F8010053
:1014C00000F071F8641C0BF101001FFA80FBB345BA
:1014D000EDDB0AF101001FFA80FAAA45E4DBBDE862
:1014E000F09F2DE9FE4305460F4616469846DDE976
:1014F0000A94102C03D0182C01D0202C0FD1204698
:1015000004EBD071491069438DB207FB04F087B238
:10151000F02D00DDF025F02F03DDF02701E0BDE820
:10152000FE8310E00020CDE900940290327843461B
:1015300039462846FFF7D2FE204604EBD07105EB72
:1015400061018DB2761C30780028EBD100BFE6E750
:1015500010B504460121084600F0C6FA4FF4806039
:1015600007490860204600F02CF84FF480600449D9
:10157000091F08600021012000F0B6FA10BD00002C
:101580001408014010B504460121084600F0ACFAE9
:10159000201200F016F8E0B200F013F8002101204C
:1015A00000F0A2FA10BD10B504460121084600F073
:1015B0009BFA204600F005F80021012000F094FA83
:1015C00010BD10B50446204600F0ACFA10BD000076
:1015D0001CB50446684601F00EFEE4B10121154831
:1015E00001F026FC01211348801C01F021FC4FF47E
:1015F0008050009001208DF8070000208DF8040035
:1016000010208DF8060004208DF8050069460A4870
:1016100001F0FCFD0CE041F21000009003208DF879
:10162000060004208DF805006946034801F0EEFD30
:101630001CBD0000020018000008014010B504465F
:101640002046FFF7C5FF0021012000F019F810BD6A
:1016500010B50C464CB1AA2001F03AF8012001F077
:1016600037F8002001F034F808E0002001F030F8ED
:10167000002001F02DF8002001F02AF810BD000034
:10168000012802D0022815D10BE021B14FF480527D
:101690000A4B1A6004E04FF48052084B1B1F1A607B
:1016A00009E019B10422064B5A6102E00422044BFE
:1016B0001A6100E000BF00BF70470000140801403D
:1016C0000010014038B502F011F8032001F024FFAA
:1016D00000F054F8FFF7EEF91C48816801208847B4
:1016E0001A48416801208847184801224FF4E13127
:1016F000C36803209847154801224FF4E131C368BD
:101700000220984711480169012088470F480121AC
:101710004269084690470D48C16901208847012069
:1017200000F042FF0A480121826C084690470948B0
:1017300000900748F0231A460021046A0846A04793
:101740000548016805A000F0F9FF38BD3802002007
:10175000580200205A4F000860000020737973740B
:10176000656D5F636F72655F636C6F636B3A2025B5
:1017700064200D0A0000000000BFFEE710B500F075
:1017800021F80848084988600848C8600848086186
:101790000848486008484861084888610848C861A6
:1017A00010BD00007D1D000838020020292500081A
:1017B0003D160008FD1000085D0D0008AD2600086C
:1017C000B909000821482249086022484860224996
:1017D0001F4881602149C16021490161214941615E
:1017E000214981612149C16121490162214818498A
:1017F00048622149164881622049C16220494163FB
:101800002048134908632049114881631F48104943
:1018100088641F490E48C1641E4901641E480C4972
:10182000C8631E490A4841641D48094908651D48A6
:1018300048651D490648C1651C4901661C480449A4
:1018400088651C490248416670470000470B000844
:10185000580200205D100008F70F00084B0F000829
:10186000AD0E000813100008E3140008151400085A
:101870007D140008811C0008091C0008EF1B0008EB
:101880002D0C0008491D0008B90B0008811600083E
:10189000511600084D200008832000084006002053
:1018A000810D0008392600081909000821080008E0
:1018B000C90800086C0000207047000010B50248FD
:1018C00003F0D6F810BD00009400002010B54FF4CE
:1018D000802001F081FC10BD3CB50446D4E9001025
:1018E0000968884206D02068006860600020207285
:1018F000607255E0207A40B90120207200206072A9
:10190000E16903C9C4E905014AE0002000900190A3
:101910000025D4E90501FFF7D5F90090E269D2E985
:101920000001FFF7CFF90190DDE90001884203DDF6
:101930001C49019808440190DDE90010401A00900C
:10194000D4E90301FFF7BEF90190E0694168A0699D
:10195000814209D20098401E00901349A069081ADC
:10196000E1694968451803E0E0694168A0690D1A1A
:101970002069A84202D90098401E0090DDE90001CC
:10198000401A0AD470206072A07A08B9012000E0E1
:101990000020A0720020207201E00020607200BFD1
:1019A000607A3CBD8051010040420F00704700004A
:1019B00070B504460D460D480268D31720462946E7
:1019C000FEF7F4FB0A49086008480268D31720466E
:1019D0002946FEF7EBFB0648426040680349096868
:1019E000081A4FF0E021886170BD0000240000203B
:1019F0003000002010B502210B4801F0B3FD012892
:101A000010D18021084801F0ADFD58B90022802195
:101A1000054801F0AFFD0021012000F065F801202C
:101A20000249088010BD0000003001402000002065
:101A30001CB50446684601F0DEFB9CB30121214839
:101A400001F0F6F901214FF4C01001F0F1F94FF463
:101A50008050009001208DF8070000208DF80400D0
:101A600010208DF8060004208DF805006946164800
:101A700001F0CCFB4FF42040009008208DF80600C8
:101A80006946114801F0C2FB4FF4804000900020ED
:101A90008DF8060018208DF8050069460A4801F007
:101AA000B5FB0DE0FFE74FF47040009003208DF888
:101AB000060004208DF805006946034801F0A6FBE6
:101AC0001CBD000003001800000C014010B50221ED
:101AD000044801F047FD012803D18021014801F0AD
:101AE00041FD10BD0038004020B1012807D0022878
:101AF00012D110E04FF48052094B1A600DE029B169
:101B00004FF48052064B1B1D1A6003E04FF48052C5
:101B1000034B1A6001E000E000BF00BF7047000007
:101B2000100C014010B5044600BF022109480068AE
:101B300001F018FD0028F8D021460648006801F0A1
:101B40000FFD00BF80210348006801F00BFD002855
:101B5000F8D110BD1C0000207CB50546002405B15D
:101B600001242046FFF764FF00210120FFF7BCFF9E
:101B70001C48006801F008FD684601F0E1FC072000
:101B800001F0CAFC2146184801F052F90022012157
:101B9000242001F05DFC01208DF8010000208DF86B
:101BA000040002208DF8020000208DF803000120BF
:101BB0008DF805008DF806008DF8070000208DF8DF
:101BC000000069460748006801F0FEFC0022802101
:101BD0000448006801F0CEFC21460248006801F08C
:101BE000BAFC7CBD1C0000200E001C00704730B504
:101BF0000446002504E04FF47A7000F005F86D1CEF
:101C0000A542F8DB30BD00002DE9F04F83461948AE
:101C100000680BFB00FAFEF7ABFF06460F4624E018
:101C2000FEF7A6FF0D460446301B77EB050004D2F5
:101C3000B4EB060865EB07090FE00F480068C00821
:101C40000E4900FB01F84FF00009B8EB060869EBFC
:101C5000070918EB040849EB05094FEAEA70B8EBED
:101C60000A0179EB000000D300E0D9E700BFBDE82E
:101C7000F08F00002800002060000020805101004B
:101C80002DE9F04F8346194800680BFB00FAFEF778
:101C90006FFF06460F4624E0FEF76AFF0D46044636
:101CA000301B77EB050004D2B4EB060865EB07099F
:101CB0000FE00F480068C0080E4900FB01F84FF024
:101CC0000009B8EB060869EB070918EB040849EBB3
:101CD00005094FEAEA70B8EB0A0179EB000000D37E
:101CE00000E0D9E700BFBDE8F08F00002C00002025
:101CF00060000020805101001CB502464FF4616372
:101D000091FBF3F0182801DA034600E01823DBB258
:101D10008DF800304FF4616391FBF3F403FB14136F
:101D20003C2493FBF4F0C3B28DF801303C2391FBCB
:101D3000F3F403FB1410C3B28DF80230DDE9003474
:101D4000C2E900341CBD000013B5DDE90001FEF757
:101D5000B9FF04460448006884FB00200146104691
:101D6000FFF726FE1CBD000050000020024800685E
:101D7000401C0149086070473000002010B504463F
:101D8000204600F01FF80A480068C00809490860AA
:101D9000084600684FF47A7190FBF1F0064908603C
:101DA00004480068054990FBF1F00549086010BD42
:101DB00060000020500000205400002040420F002E
:101DC0005800002070B504462B48006800092B49D4
:101DD000086029480068C0084FF47A71B0FBF1F040
:101DE0002749086024480068C0082649B0FBF1F084
:101DF0002549086054B300BF1F4800680109481E08
:101E0000B0F1807F01D301201BE0481E4FF0E0229B
:101E1000506150170F22002804DB13071D0E1B4BC7
:101E20001D5406E013071E0E194B00F00F052D1F61
:101E30005E5500BF00204FF0E02290610720106146
:101E400000200028D8D101F041FD13E000BFBFF30E
:101E50004F8F0F480C38006800F4E0600D490843CC
:101E6000001D0B490C390860BFF34F8F00BF00BF46
:101E700000BFFDE770BD00006000002024000020CE
:101E80002800002040420F002C00002000E400E069
:101E900018ED00E00000FA052248C06920F08050EB
:101EA00000F180501F49C8611F48007840F00400CD
:101EB0001D49503981F850001A48C06920F08050FF
:101EC0001849C8610846006820F00100401C0860FD
:101ED00000BF14480068C0F340000028F9D0114842
:101EE000406820F003000F49486000BF0D4840687B
:101EF000C0F381000028F9D10A4800680B49084066
:101F0000084908600020486041F61070C8624FF42C
:101F1000801008634FF41F008860C80304490860FC
:101F2000704700000010024050700040FFFFF2FEBA
:101F300008ED00E070B50446062C15D2DFE804F089
:101F40001403070B0F130E480E4908600EE00E48ED
:101F50000C4908600AE00D480A49086006E00C4890
:101F60000849086002E001E0002070BD00BF2021A8
:101F70000448006801F0D4FC05462846F5E7000057
:101F80000038014038000020004400400048004074
:101F9000004C004010B50446062C15D2DFE804F0D2
:101FA0001403070B0F130D480D4908600DE00D4891
:101FB0000B49086009E00C480949086005E00B4836
:101FC0000749086001E000E010BD00BF202104487F
:101FD000006801F09CFC00BFF6E7000000380140FB
:101FE000380000200044004000480040004C004001
:101FF00070B50446062C15D2DFE804F01403070B75
:102000000F130D480D4908600DE00D480B4908609D
:1020100009E00C480949086005E00B4807490860D9
:1020200001E000E000BF00BF0448006801F062FC6E
:102030000546284670BD00000038014038000020E9
:102040000044004000480040004C00402DE9F041B1
:1020500007460C461546C82D01DA284600E0C82080
:102060008046002605E03046761C215C384600F0AC
:1020700015F8B8F10000A8F10108F4D10120BDE87D
:10208000F08170B505460C462046FEF7D2F80646AC
:10209000324621462846FFF7D9FF70BD70B5044689
:1020A0000D46062C15D2DFE804F01403070B0F13BE
:1020B0001048114908600DE010480F49086009E018
:1020C0000F480D49086005E00E480B49086001E023
:1020D00000E070BD00BF00BF40210748006801F06C
:1020E0001FFC0028F8D029460348006801F006FCD0
:1020F00000BFEEE7003801403800002000440040F7
:1021000000480040004C004070B501252846FFF70C
:1021100011FF80B12846FFF76BFFC4B2064951F8A2
:1021200025002146FEF767FD2846FFF733FF2146CD
:102130002846FFF7B3FF70BD4006002070B50225AA
:102140002846FFF7F7FE80B12846FFF751FFC4B2DB
:10215000064951F825002146FEF74DFD2846FFF7B8
:1021600019FF21462846FFF799FF70BD4006002061
:1021700070B503252846FFF7DDFE80B12846FFF73E
:1021800037FFC4B2064951F825002146FEF733FD5A
:102190002846FFF7FFFE21462846FFF77FFF70BD68
:1021A000400600207CB504460D4600262F483049E5
:1021B00008600846006801F037FC05B10126314689
:1021C0002C4800F035FE01212A480C3800F030FE82
:1021D000684601F010F84FF40070009001208DF86F
:1021E000070000208DF8040008208DF80600042068
:1021F0008DF805006946204801F008F84FF480602A
:10220000009000208DF8060018208DF80500694622
:10221000194800F0FBFF072001F07EF901220021A0
:10222000252001F015F900231A46214610480068C0
:1022300001F07EFB01210E48006801F03FFC012106
:102240000B48006801F0EBFB00210948006801F031
:10225000C0FB012209490648006801F09FFB0121EB
:102260000348006801F04EFB7CBD000000380140CF
:10227000380000200E0018000008014005000C0086
:102280007CB504460D4600262D482E4908600846B8
:10229000006801F0C9FB05B1012631462A4800F06B
:1022A000C7FD0121294800F0C3FD684600F0A3FFE7
:1022B0000420009001208DF8070000208DF8040014
:1022C00008208DF8060004208DF805006946204896
:1022D00000F09CFF0820009000208DF806001820D8
:1022E0008DF8050069461A4800F090FF072001F0BC
:1022F00013F902220021262001F0AAF800231A4631
:1023000021461048006801F013FB01210D480068C8
:1023100001F0D4FB01210B48006801F080FB002193
:102320000848006801F055FB01220A490548006889
:1023300001F034FB01210348006801F0E3FA7CBDA1
:10234000004400403800002011001C00020018006A
:102350000008014005000C007CB504460D4600262F
:102360003348344908600846006801F05DFB05B158
:1023700001263146304800F05BFD01214FF4C010CA
:1023800000F056FD01212D4800F052FD01212C489E
:1023900000F09AFF684600F02EFF4FF48060009036
:1023A00001208DF8070000208DF8040008208DF82A
:1023B000060004208DF805006946224800F026FF3B
:1023C0004FF40060009000208DF8060018208DF872
:1023D000050069461B4800F019FF072001F09CF832
:1023E00003220021272001F033F800231A4621465A
:1023F0001048006801F09CFA01210E48006801F0C5
:102400005DFB01210B48006801F009FB0021094830
:10241000006801F0DEFA01220B490648006801F06D
:10242000BDFA01210348006801F06CFA7CBD000090
:10243000004800403800002012001C000400180072
:102440000104182C0010014005000C007CB5044666
:102450000D4600262E482F4908600846006801F006
:10246000E3FA05B1012631462B4800F0E1FC0121D9
:102470002A4800F0DDFC684600F0BDFE4FF48060A5
:10248000009001208DF8070000208DF8040008203E
:102490008DF8060004208DF805006946204800F0FC
:1024A000B5FE4FF40060009000208DF80600182063
:1024B0008DF8050069461A4800F0A8FE072001F0D3
:1024C0002BF804220021342000F0C2FF00231A461A
:1024D00021461048006801F02BFA01210D480068E0
:1024E00001F0ECFA01210B48006801F098FA002194
:1024F0000848006801F06DFA01220A4905480068A1
:1025000001F04CFA01210348006801F0FBF97CBDA1
:10251000004C00403800002013001C00040018008C
:102520000010014005000C0070B504460D4616462B
:10253000012C06D0022C0DD0032C14D0042C24D155
:102540001AE031462846FFF72DFE1148114941F89F
:1025500024001BE031462846FFF792FE0E480D4945
:1025600041F8240012E031462846FFF7F5FE0B48FB
:10257000084941F8240009E031462846FFF766FF84
:102580000748044941F8240000E000BF00BF70BDC7
:10259000C002002040060020A0030020800400208C
:1025A0006005002000BFFEE71CB50446684600F049
:1025B00022FE6CB301211D4800F03AFC01211B48AA
:1025C000C01C00F035FC4FF40060009001208DF835
:1025D000070000208DF8040010208DF8060004206C
:1025E0008DF805006946124800F010FE04200090A6
:1025F00001208DF8070000208DF804008DF80600FA
:1026000004208DF8050069460A4800F0FFFD0BE044
:102610001020009003208DF8060004208DF805009E
:102620006946034800F0F2FD1CBD000002001800DE
:1026300000080140001401407CB505460C46012D00
:1026400013D1AA208DF8000007208DF80100022088
:102650008DF8020000208DF803008DF8044004F18D
:10266000B300C0B28DF8050014E0022D11D17E2018
:102670008DF8000004208DF8010003208DF8020081
:1026800000208DF803008DF80440EF208DF8050040
:1026900000E07CBD002605E01DF806100220FFF7D3
:1026A000FDFC761C062EF7DB00BFF2E710B50446F2
:1026B00021464FF41650FFF7E3FD10BD08B500901A
:1026C00002E00099491E009100990029F9DC08BD3B
:1026D00030B504462546002225E005FA02F000F058
:1026E000800078B14FF48050134908600720FFF74D
:1026F000E5FF4FF480501049091D08600320FFF7E3
:10270000DDFF0EE04FF480500B4908600320FFF717
:10271000D5FF4FF480500849091D08600620FFF7D7
:10272000CDFF501CC2B2082AD7DB4FF480500249BB
:10273000091D086030BD0000100801400FB4054BB2
:1027400010B503A9044A029800F018F810BC5DF80F
:1027500014FB0000E53100086800002002E008C812
:10276000121F08C1002AFAD170477047002001E00B
:1027700001C1121F002AFBD1704700002DE9FF4F55
:1027800089B09B460446002506E025280BD05A4612
:102790000B999047641C6D1C20780028F5D10DB072
:1027A0002846BDE8F08F0027B8460122474900E0DF
:1027B000074314F8013F203B02FA03F00842F7D127
:1027C00020782E2819D114F8010F47F004072A2881
:1027D0000ED06FF02F022078A0F1300109290CD81B
:1027E00008EB880102EB410100EB0108641CF2E7F1
:1027F0000A98641C50F8048B0A9020780028CED0E8
:10280000642808D0692806D075281ED05A460B992E
:1028100090476D1C58E00A994FF00A0901C90A91C6
:10282000002802DA40422D2102E0390504D52B218F
:102830008DF82010012103E0F90704D02021F7E7EB
:102840008A4608AE0DE00021FAE70A994FF00A091E
:1028500001C90A91F7E74946FDF7B5FE303106F8A0
:10286000011D0028F7D1ADEB060000F12009780723
:1028700001D44FF00108C84502DDA8EB090000E0D3
:1028800000208046002706E008A85A46C05D0B9944
:1028900090476D1C7F1C5745F6DB04E030205A46FC
:1028A0000B9990476D1CB8F10001A8F10108F5DC07
:1028B00005E016F8010B5A460B9990476D1CB9F1CB
:1028C0000001A9F10109F4DC641C65E70928010095
:1028D0000B78426863F3082242604B78826863F3A6
:1028E000410282608B78826863F3CB228260CA786F
:1028F000521EC36A62F31753C3627047002101700E
:10290000417081700121C1707047816821F0080118
:1029100008318160704701468868C0F3C00008B183
:10292000012070470020FCE7816821F00401091DA7
:102930008160704701468868C0F3800008B10120BB
:1029400070470020FCE7826861F3082282607047CC
:10295000826861F300028260704710B5122964D268
:10296000DFE801F0090E13181D22272C31363B40F9
:10297000454A4F54595E046963F30204046155E00B
:10298000046963F3C504046150E0046963F38814C7
:1029900004614BE0046963F34B24046146E004697D
:1029A00063F30E34046141E0046963F3D1340461DC
:1029B0003CE0046963F39444046137E0046963F321
:1029C0005754046132E0046963F31A6404612DE032
:1029D000046963F3DD64046128E0C46863F30204FE
:1029E000C46023E0C46863F3C504C4601EE0C46827
:1029F00063F38814C46019E0C46863F34B24C460B3
:102A000014E0C46863F30E34C4600FE0C46863F379
:102A1000D134C4600AE0C46863F39444C46005E040
:102A2000C46863F35754C46000E000BF00BF112ABC
:102A30005AD2DFE802F059090E13181D22272C3153
:102A4000363B40454A4F5400446B61F304044463F1
:102A50004BE0446B61F34914446346E0446B61F31B
:102A60008E24446341E0446B61F3D33444633CE01F
:102A7000446B61F31854446337E0446B61F35D6465
:102A8000446332E0046B61F3040404632DE0046BDF
:102A900061F34914046328E0046B61F38E2404633A
:102AA00023E0046B61F3D33404631EE0046B61F331
:102AB0001854046319E0046B61F35D64046314E06B
:102AC000C46A61F30404C4620FE0C46A61F3491488
:102AD000C4620AE0C46A61F38E24C46205E0C46A79
:102AE00061F3D334C46200E000BF00BF10BD07290A
:102AF0000ADD836823F0007303F100738360836849
:102B000061F35343836007E0836823F000738360BD
:102B1000836861F353438360836862F31453836073
:102B20007047826861F39652826070470349096872
:102B300060F3D751014A116070470000082401403A
:102B40000649496860F38F31044A5160820803499D
:102B5000496862F31C71014A5160704700100240DD
:102B60000349496860F30711014A5160704700004A
:102B7000001002400349496860F30A21014A51608C
:102B800070470000001002400349496860F3CD21FE
:102B9000014A51607047000000100240012807D12F
:102BA0000749496D21F030013031054A516505E092
:102BB0000349496D21F03001014A51657047000019
:102BC00000100240052827D2DFE800F0030A1118A0
:102BD0001F00134A126861F30002114B1A601CE0D7
:102BE0000F4A126861F310420D4B1A6015E00C4A4F
:102BF000126861F318620A4B1A600EE0084A126A02
:102C000061F30002064B1A6207E0054A526A61F35B
:102C10000002034B5A6200E000BF00BF7047000093
:102C2000001002402DE9F04F85B004460025AA4669
:102C3000AB460026A9460020049003900290019024
:102C400000F0FAF90090009820B1012812D0022873
:102C500075D112E05648406DC0F3402038B1544859
:102C6000006BC0F3406010B15248206001E0524850
:102C7000206067E05048206064E04D484068C0F341
:102C8000004B4B48C06AC00F30BB49484068C0F396
:102C9000834547484068C0F3417ABAF1000F01D13B
:102CA0000F2D04D14FEA0A10401C054400E0AD1C72
:102CB000BBF1000F03D14148684320603DE03C4830
:102CC0004068C0F3404018B13C486843206034E09D
:102CD00039486843206030E03548C06AC0F30310CB
:102CE00003903348C06AC0F3082002903048C06A9D
:102CF00000F007000190BBF1000F02D12F480490B3
:102D000009E02B484068C0F3404010B12B480490C4
:102D100001E0294804900121019801FA00F003998B
:102D200000FB01FC02990498A0FB01700146624679
:102D300000233846FDF73AFA206003E0FFE71E481B
:102D4000206000BF00BF1A484068C0F303161C484B
:102D500010F80690206820FA09F060601448406876
:102D6000C0F30226174810F80690606820FA09F0B0
:102D7000E0600F484068C0F3C226134810F8069080
:102D8000606820FA09F0A06009484068C0F3007646
:102D900007484068C0F3813040EA86060B4810F8C7
:102DA0000690A068B0FBF9F0206105B0BDE8F08F97
:102DB00000100240006CDC0200127A0000093D00A5
:102DC000F2420208024302080A43020812430208C0
:102DD00010B501460020094B03EB1142126801F0C7
:102DE0001F040123A3401A4001F01F040123A34044
:102DF0009A4200D000E0012010BD00000010024007
:102E00000349096B60F35961014A1163704700007F
:102E10000010024000B503460120FFF7F1FF034810
:102E2000406D63F349200149486500BD0010024030
:102E300010B501290DD10E4B03EB1042126800F0C2
:102E40001F040123A3401A43094C04EB10431A60EA
:102E50000CE0074B03EB1042126800F01F04012343
:102E6000A3409A43024C04EB10431A6010BD0000CB
:102E70000010024010B501290DD10E4B03EB10429A
:102E8000126800F01F040123A3401A43094C04EB0D
:102E900010431A600CE0074B03EB1042126800F07D
:102EA0001F040123A3409A43024C04EB10431A6011
:102EB00010BD00000010024030B502460020002383
:102EC0003AB9324C646824F48034304D6C60304838
:102ED00019E02E4C646824F4803404F580342B4DC2
:102EE0006C60012A06D12B482C46646824F4003417
:102EF0006C6008E02648254C646824F4003404F52E
:102F00000034224D6C60244CA04204D9234CA042D2
:102F100001D2002326E0224CA04204D9214CA04239
:102F200001D201231EE0204CA04204D91F4CA04234
:102F300001D2022316E01D4CA04204D91C4CA04231
:102F400001D203230EE01B4CA04204D91A4CA0422C
:102F500001D2042306E0184CA04203D9174CA0422A
:102F600000D20523094C646861F39544074D6C60F9
:102F70000D09064C646865F35E74044D6C602C4664
:102F8000E46A63F31A64EC6230BD00000010024092
:102F900000093D0000127A0060823B00404B4C006B
:102FA00080584F00105E5F0094357700101B7F0043
:102FB00020BCBE00286BEE0030D73D01D8E9DC0113
:102FC0001648006820F00100401C1449086000BF4A
:102FD00012480068C0F340000028F9D00F4840684C
:102FE00020F003000D49486000BF0C484068C0F362
:102FF00081000028F9D109480068094908400749BB
:1030000008600020486041F61070C8624FF48010DC
:1030100008634FF41F0088607047000000100240F2
:10302000FFFFF2FE0349496860F30101014A516064
:10303000704700000010024002484068C0F3810061
:1030400070470000001002400649496860F397513C
:10305000044A516082080349496862F3DB61014A0E
:10306000516070470010024010B50446012C01D198
:10307000FFF7D0FE0348406D64F30820014948651E
:1030800010BD000000100240026861F300020260FF
:1030900070470021016041600181418101734173EA
:1030A0008173C1730174417470470000B0F1805F97
:1030B00004D920F07041034A116001E002494860E0
:1030C0007047000004040240000002400146002056
:1030D0000022B1F1805F02D9054B1A6801E0054B6F
:1030E0001A6802EA01030BB1012000E000207047DA
:1030F000000402400000024002684BF6EF731A40E1
:10310000026002680B891A4302604B7C026863F319
:103110000D320260CB7B026863F38B2202608B7BF3
:10312000026863F3092202604B7B026863F3C712F3
:1031300002600B7B026863F3861202600B7C0268FC
:1031400063F3451202604A8942600A6882604A68F5
:10315000C26070471AB103680B43036002E0036862
:103160008B430360704700000021026822F00102D7
:1031700002600022026042608260C260014640F24A
:10318000FF420A40B2F5816F0DD2CAB2083A142349
:10319000B2FBF3F293000F229A400D4B5B681A4387
:1031A0000B4B5A6012E040F2FF420A40B2F5916FB9
:1031B0000CD2CAB2083A1423B2FBF3F293000F22E6
:1031C0009A40044B1B681A43024B1A607047000078
:1031D00000000240040402400149086070470000FA
:1031E0001404014070B504460D46E1B20320FEF719
:1031F00055FF204670BD4FF6FF71016000218171BF
:103200000171042141710121C1717047F0B50A4675
:103210001588ABB29579032D01D100241AE0957978
:1032200065B9557905F00F045579182D01D1036161
:1032300010E05579282D0DD143610BE0957905F00B
:103240000805167906F004063543D67906F003061C
:1032500045EA0604DDB2A5B1002110E001258D404C
:103260001D405DB105688F000F26BE40B543056067
:1032700005688E0004FA06F635430560491C0829E6
:10328000ECD3FF2B15DD1B12002110E001258D4032
:103290001D405DB145688F000F26BE40B5434560B7
:1032A00045688E0004FA06F635434560491C082936
:1032B000ECD3F0BD0246002093680B408B4200D057
:1032C00000E0012070470000F0B50C46104F07EBFE
:1032D0001062C0F30741C0F30725C6B2C5F120074D
:1032E000A7EB010C4FF0FF3707FA0CF3C5F12007ED
:1032F0007F1AFB40CB408B4017689F4317602CB16F
:1033000006FA01FC176847EA0C071760F0BD0000D9
:10331000000001401CB5FEF7D5F975E03B48416B54
:10332000684688473948016D01208847F8B9374811
:10333000016D0120884778B935480068401C344940
:10334000086008460068642801DD012008603048F4
:10335000016830A0FFF7F2F900BF2C48816A052010
:1033600088472A48016D012088470028F5D02D485C
:10337000C068007DF8B12B48C068806840784C2850
:1033800010D12848C068806880794E2805D11F4830
:103390000021826C0120904704E01C480121826CCE
:1033A000084690471F49C868E021FCF737FFE02135
:1033B0001DA0FFF7C3F904212048FFF77BFF204938
:1033C0000978884220D004211C48FFF773FF1C496C
:1033D00008700846007818B901201A49087002E000
:1033E000002018490870184841680120884707489C
:1033F000816A0A208847154800900448F0231A463D
:103400000021046A0846A04788E70000580200200F
:10341000040000204B6579206E756D203A202564EC
:10342000000000004006002073697A652075617213
:10343000742D202564200D0A0000000000140140B6
:10344000080000205E000020380200205A4F0008CB
:103450002DE9F0470B4614464FF0000C00BF2C4AF4
:103460001268C2F302211D4626460A46C2F1070928
:10347000B9F1040F02D94FF0040901E0C2F10709C4
:10348000C84602F10409B9F1070F02D24FF0000952
:1034900001E0A2F103094F464FF0010909FA08F9CA
:1034A000A9F1010909EA050909FA07F94FF0010A2A
:1034B0000AFA07FAAAF1010A0AEA060A49EA0A0917
:1034C000CC4601466246002904DB15072E0E114D3D
:1034D0006E5407E015072F0E0D4D0C3501F00F0649
:1034E000361FAF5500BF014600290DDB00BF00BFEE
:1034F00001F01F050122AA404D09AD0005F1E025AC
:10350000C5F8002100BF00BF00BFBDE8F087000084
:103510000CED00E000E400E000BF00F00702064B05
:1035200019684FF6FF031940044B0B4343EA02218D
:10353000014B196000BF70470CED00E00000FA0578
:103540000021017041708170C17001714171817100
:103550000121C1717047026861F3861202607047F1
:10356000C16070470246002093680B4003B900E039
:10357000012070471AB143680B43436002E043687F
:103580008B4343607047000010B504460C488442EA
:103590000AD101214FF00C10FFF76CFC00214FF015
:1035A0000C10FFF767FC0AE00648844207D10121AE
:1035B0008012FFF75FFC0021A012FFF75BFC10BD3B
:1035C0000030014000380040C26922F40062C2614C
:1035D0000A7862B9026822F400420260026822F4AA
:1035E00080420260026822F48062026036E00A785B
:1035F000012A0ED1026822F400420260026822F41D
:1036000080420260026822F4806202F580620260F9
:1036100024E00A78022A0ED1026822F4004202F560
:1036200000420260026822F480420260026822F4D2
:103630008062026012E00A78032A0FD1026822F445
:10364000004202F500420260026822F4804202F564
:1036500080420260026822F480620260CB790268D4
:1036600063F3492202604A78012A09D1CA79012A02
:1036700006D1026822F4807202F58072026003E0D3
:10368000026822F4807202604B78026863F382025F
:1036900002608A78072A0BDD426822F4807202F504
:1036A000807242608A78036862F3C503036008E0B1
:1036B000426822F4807242608B78026863F3C5022C
:1036C0000260CB78026863F3C71202600B7902686C
:1036D00063F3CB2202604B79026863F3410202601C
:1036E0008B79026863F300020260704710B500F046
:1036F00001F810BD10B54FF4AA701E490860FFF71D
:103700005FFC01210020FFF75DFA00BF0120FFF7F9
:103710005FFB0128FAD123210020FFF7CDFB012117
:103720000220FFF74FFA00BF1920FFF751FB0128D5
:10373000FAD10020FFF714FA0420FFF725FA04203D
:10374000FFF718FA0120FFF729FA0220FFF76AFCB9
:1037500000BFFFF771FC0228FBD10020FFF71EFA23
:103760000520FFF771FC0020FFF77EFC00F004F855
:1037700010BD0000002002402DE9FF5F002400255D
:103780000026A146A246A346002003900290019085
:10379000FFF752FC0090009820B1012814D00228B5
:1037A00074D115E04348406DC0F3402040B141481A
:1037B000006BC0F3406018B13F484049086002E028
:1037C0003F483E49086065E03D483C49086061E08B
:1037D00038484068C0F300463648C06AC00F20BB76
:1037E00034484068C0F3834432484068C0F34175B0
:1037F0000DB90F2C03D12801401C044400E0A41C87
:1038000026B9304860432D4908603DE029484068AA
:10381000C0F3404020B12B4860432849086033E0A2
:1038200027486043254908602EE02248C06AC0F35B
:10383000031003901F48C06AC0F3082002901D487F
:10384000C06A00F00700019016B9DFF878B009E00F
:1038500018484068C0F3404010B1DFF868B001E09C
:10386000DFF85CB00121019801FA00F0039900FB38
:1038700001FC0298ABFB007001466246002338460B
:10388000FCF794FC0D49086004E0FFE70C480B4985
:10389000086000BF00BF07484068C0F303190A482A
:1038A00010F809A00548006820FA0AF003490860EA
:1038B000BDE8FF9F00100240006CDC0260000020A9
:1038C00000127A0000093D00E2420208042808D1F3
:1038D0004FF0E021096941F004014FF0E02211614D
:1038E00007E04FF0E021096921F004014FF0E022E8
:1038F000116170470146486880B27047C1F3080201
:1039000042607047C26861F34D32C260704701F097
:103910001F0212B10268426801E0CA4302607047A8
:1039200002461068084008B1012070470020FCE7FB
:103930002DE9F04385B004460F4690469946684607
:10394000FFF770F91448844201D1029E00E0039E03
:1039500006EB86004000B0FBF7F50A20B5FBF0F15E
:1039600000FB1150052803D20A20B5FBF0F503E057
:103970000A20B5FBF0F0451CA06865F30F00A060BD
:10398000E06868F30C30E060206969F30D30206175
:1039900005B0BDE8F08300000038014030B5012AD1
:1039A0000BD100EB11431B6801F01F050124AC4053
:1039B000234300EB114423600AE000EB11431B6832
:1039C00001F01F050124AC40A34300EB1144236028
:1039D00030BD41B9C26822F40072C260C26822F4EC
:1039E0008062C2601AE001290AD1C26822F4007222
:1039F000C260C26822F4806202F58062C2600DE09B
:103A000002290BD1C26822F4007202F50072C26072
:103A1000C26822F4806202F58062C2607047C268A8
:103A200061F38202C260704710B504461D488442AB
:103A300008D101211C48FFF71DFA00211A48FFF7A1
:103A400019FA2EE01948844208D101218012FFF7AB
:103A500011FA0021A012FFF70DFA22E01448844267
:103A600008D101218012FFF705FA0021A012FFF70B
:103A700001FA16E00F48844208D101218012FFF7B5
:103A8000F9F90021A012FFF7F5F90AE00A4884428B
:103A900007D101218012FFF7EDF90021A012FFF7F5
:103AA000E9F910BD003801400E000C000044004050
:103AB00000480040004C004000500040C26861F3E4
:103AC000C302C26070474FF410610958CA0AD2029B
:103AD0004FF410610A5040F60401095821F4807235
:103AE00040F604010A507047014601F5306000229B
:103AF00002610123026963F3DC42026102696FF330
:103B0000120218320261026922F0C04202F1C04280
:103B10000261704710B58A7812BB0A7800F510630D
:103B200003EB4212126822F400140A7803EB4212EB
:103B30001460CA78032A02D0CA78022A32D10A78DD
:103B400000F5106303EB4212126822F0805202F17A
:103B500080520B7800F5106404EB43131A6021E0E7
:103B60000A7800F5306303EB4212126822F4001465
:103B70000A7803EB42121460CA78032A02D0CA788A
:103B8000022A0FD10A7800F5306303EB4212126863
:103B900022F0805202F180520B7800F5306404EB81
:103BA00043131A6010BD00F5106303EB41139A60D4
:103BB000704730B502464FF40165AB5840F6340506
:103BC000AC5824FA01F505F0010543EAC51302F5E6
:103BD000106505EB4115AD6805EA030030BD30B551
:103BE00000220B788BB98B68402B00D10DE08B68DD
:103BF000202B01D1012208E08B68102B01D1022279
:103C000003E08B68082B00D103228B78002B61D155
:103C100040F61C031B580D780124AC40234340F6AA
:103C20001C0423500B7873B90B7800F5106404EB77
:103C300043131B6862F30A030C7800F5106505EB6B
:103C4000441423600EE00D890B7800F5106404EB3A
:103C500043131C6865F30A040B7800F5106505EB47
:103C600043131C60CD780B7800F5106404EB43130C
:103C70001C6865F393440B7800F5106505EB43135E
:103C80001C600D7800F5106404EB45131B6865F3A8
:103C900099532C4600F5106505EB441423600B780E
:103CA0002C4604EB43131B6823F0805303F180532D
:103CB0000C7805EB441423600B782C4604EB43137B
:103CC0001B6823F4004303F500430C7805EB441410
:103CD000236053E040F61C031C580D780123AB40D1
:103CE00044EA034440F61C031C500B7873B90B786C
:103CF00000F5306404EB43131B6862F30A030C788D
:103D000000F5306505EB441423600EE00D890B7857
:103D100000F5306404EB43131C6865F30A040B7868
:103D200000F5306505EB43131C60CD780B7800F58A
:103D3000306404EB43131B6865F393430C7800F580
:103D4000306505EB441423600B782C4604EB4313D9
:103D50001B6823F0805303F180530C7805EB441467
:103D600023600B782C4604EB43131B6823F40043B9
:103D700003F500430C7805EB4414236030BD00F5D7
:103D8000306303EB41139A607047024602F53060DE
:103D900000EB4110836840F61400805818407047CB
:103DA00010B58A7812BB0A7800F5106303EB421253
:103DB0001268D20F4AB90A7803EB4212126822F055
:103DC00080440A7803EB421214600A7800F510630D
:103DD00003EB4212126822F4001202F500120B7873
:103DE00000F5106404EB43131A6021E00A7800F533
:103DF000306303EB42121268D20F4AB90A7803EB20
:103E00004212126822F080440A7803EB42121460D6
:103E10000A7800F5306303EB4212126822F40012B4
:103E200002F500120B7800F5306404EB43131A60BE
:103E300010BD000010B50022036961F38A1303610D
:103E4000036923F020032033036105E01346521C6D
:103E5000054CA34200D904E00369C3F34013002BCF
:103E6000F4D100BF10BD0000400D0300014640F634
:103E700018004258001D4058104080B2704701465B
:103E800040F618004258001D40581040000C704782
:103E90004161704701464A69886910407047012AAC
:103EA00003D183690B43836102E083698B438361A0
:103EB0007047D0F8001E21F00101C0F8001E7047C5
:103EC000F0B51746DD1C4FEAE57C05EB9C7C4FEA1C
:103ED000AC060C46002205E04FF480552D582560B5
:103EE000241D521CB242F7D3F0BDD0F8002861F374
:103EF0000A12C0F80028704741627047F0B51346B7
:103F000000240022426A19B942EA0345856215E09D
:103F1000856A02EB1542002407E000F5827555F82A
:103F2000245002EB1542651CECB24D1EA542F4DC98
:103F300042EA034700F5827646F82570F0BDD0F8D6
:103F4000001E21F00101491CC0F8001E7047014607
:103F500040F60800405800F0010070472DE9F04796
:103F600080460E46D8F8007006EB460000EBC6010E
:103F700008F10C0000EB8104D4E90601451A4FF06A
:103F80000009A068A84200D2A568E81C4FEA900981
:103F900015E0D4E90601451AA068A84200D2A56838
:103FA000E81C4FEA9009ABB2B2B23846616900F042
:103FB00021F8606928446061E0692844E06107F500
:103FC000106000EB4610806980B2484506D9D4E9FC
:103FD0000610884202D2A0690028DAD145B940F61D
:103FE0003400C0590121B140884340F63401C85122
:103FF000BDE8F087F0B5DE1C4FEAE67C06EB9C7C62
:104000004FEAAC070D46002409E000F5805606EBA8
:104010000236D5F800C0C6F800C02D1D641CBC4295
:10402000F3D3F0BD70B50446002504F5B67694F8D8
:104030008401022802D0032817D100E000BF708855
:10404000012811D1002084F88701D4F88C0120F0D8
:104050000200C4F88C01606804F5B67182682046DD
:104060009047204600F018F903E0204600F020F9C0
:1040700000BF00BF284670BD2DE9F04104460D4643
:10408000276805F0800050B105F07F0000EB40018B
:1040900001EBC00104F10C0000EB810609E005F022
:1040A0007F0000EB400101EBC00104F1BC0000EB1C
:1040B000810631463846FFF72DFD00207073BDE8BC
:1040C000F08170B505460E4606F07F0000EB40011A
:1040D00001EBC00105F10C0000EB8104002E44D17E
:1040E00095F8800102284CD1A168606A884211D9F4
:1040F000A168606A401A6062A168606A884201D261
:10410000606A00E0A06883B200212846626900F07E
:10411000ADFA36E0A168206A884217D1A168A06A8A
:10412000884213D3B5F88211A06A88420ED20020CB
:10413000206200231A461946284600F097FA002309
:104140001A463146284600F007FA1AE06868C06847
:1041500038B195F88401032803D16868C1682846FE
:104160008847284600F078F80BE06868406940B15D
:1041700095F88401032804D16868314642692846CD
:10418000904770BD70B505460E4606F07F0000EB07
:10419000400101EBC00105F1BC0000EB810426BB2E
:1041A00095F8800103282CD1A168606A884211D952
:1041B000A168606A401A6062A168606A884201D2A0
:1041C000606A00E0A06883B231462846626900F068
:1041D000C3F916E06868006918B168680169284683
:1041E0008847284600F058F80BE06868806940B1BD
:1041F00095F88401032804D168683146826928460D
:10420000904770BD70B504460D4604F5BA7104F5CB
:10421000B67000F04DFE012084F880014FF4B970B3
:10422000005BA4F8820194F86C0100F01F0020B13B
:10423000012806D002280CD107E0204600F043F800
:1042400008E0204600F0F8FB04E0204600F07BF890
:1042500000E000BF00BF70BD10B50446052084F823
:10426000800100231A461946204600F075F910BD5A
:104270002DE9F04105460E46144605F10C07BC62D7
:104280007C62022085F880012346324600212846C0
:1042900000F0ECF9BDE8F08110B50446042084F884
:1042A000800100231A461946204600F0DFF910BDB0
:1042B00010B504460021204600F0D5FD802120469F
:1042C00000F0D1FD10BD70B50446002504F5B676AA
:1042D000307800F0600038B1606804F5B67182682B
:1042E00020469047284670BD40F26D10005D0A28B8
:1042F00022D2DFE800F00509210D21111521191D39
:10430000204600F00BFB1BE02046FFF78BFE17E07A
:10431000204600F093FD13E0204600F002FD0FE080
:10432000204600F082FA0BE0204600F053FA07E046
:10433000204600F01FFD03E02046FFF7B9FF00BF55
:1043400000BF2846CFE72DE9F04104464FF00008B2
:1043500004F5B6773D79387800F06000202805D163
:10436000606804F5B671826820469047787820B17D
:1043700001283DD0032872D162E094F8840102281C
:1043800002D003282ED107E005F07F0018B129469E
:10439000204600F068FD29E005F0800050B105F0EE
:1043A0007F0000EB400101EBC00104F10C0000EBC9
:1043B000810609E005F07F0000EB400101EBC00140
:1043C00004F1BC0000EB8106707B012801D1306153
:1043D00001E000203061022206F110012046FFF7C3
:1043E00047FF03E02046FFF763FF00BF00BF54E034
:1043F00094F88401022802D003281BD107E02DB1D4
:10440000802D03D02946204600F02DFD16E0788847
:1044100078B905F07F0048B129462046FFF72CFE09
:10442000606804F5B6718268204690472046FFF721
:1044300033FF03E02046FFF73BFF00BF00BF2CE047
:1044400094F88401022802D003281CD108E02DB181
:10445000802D03D02946204600F005FD17E018E026
:10446000788830B92DB1802D03D02946204600F040
:10447000FAFC606804F5B6718268204690472046D1
:10448000FFF70AFF03E02046FFF712FF00BF00BF5F
:1044900003E02046FFF70CFF00BF00BF4046BDE829
:1044A000F08110B504462068FFF751FD012802D1C4
:1044B0002068FFF744FD10BD70B504462568284606
:1044C000FFF701FBE86820F4705000F5A050E860A9
:1044D000402300221146204600F011F8402300221C
:1044E0008021204600F00BF8012084F884016068E8
:1044F000406818B1606841682046884770BD2DE962
:10450000F04705460E4617469846D5F8009006F047
:10451000800060B906F07F0000EB400101EBC001B4
:1045200005F1BC0000EB81040120A0700BE006F057
:104530007F0000EB400101EBC00105F10C0000EB36
:1045400081040020A070C4F80880E7702146484626
:10455000FFF745FBBDE8F0872DE9F04305460C4623
:1045600016462F6804F07F0808EB480909EBC809D4
:1045700005F1BC0808EB890191F8008007F5306966
:1045800009EB481007F5006C4E618B614FF0000895
:10459000C1F81C8004F07F08B8F1000F03D1D1F8F6
:1045A0000880C1F81880D1F81880B8F1000F04D045
:1045B00004F07F08B8F1000F10D1D1F80890D0F8BE
:1045C000108069F31208C0F810804FF00109D0F88C
:1045D000108069F3DC48C0F8108018E0D1F808902A
:1045E000D1F81880C844A8F10108B8FBF9F2D1F855
:1045F000088008FB02F8D0F8109068F31209C0F8A0
:104600001090D0F8108062F3DC48C0F8108091F868
:104610000380B8F1010F17D1DCF80880C8F3002837
:10462000B8F1000F08D1D0F8008028F0005808F148
:104630000058C0F8008007E0D0F8008028F08058CB
:1046400008F18058C0F80080D0F8008028F0806819
:1046500008F18068C0F80080D0F8008028F0004899
:1046600008F10048C0F80080BDE8F0832DE9F84F5C
:1046700006460F4692469B46D6F8008007F07F001C
:1046800000EB400101EBC00106F10C0000EB8104DE
:10469000207808F5106101EB401508F50069C4F8B1
:1046A00014A0C4F818B00020E061A06948B9012145
:1046B000286961F3DC40286128696FF312002861E2
:1046C0002FE007F07F0090B9A168A069884201D966
:1046D000A068A061A169286961F312002861012125
:1046E000286961F3DC402861A069206219E0A168B3
:1046F000A0690844401EB0FBF1F00090A169286950
:1047000061F3120028610098296960F3DC41296196
:10471000E078012805D1286920F0C04000F1005060
:104720002861E078012809D0A06938B1D9F83400AF
:104730002278012191400843C9F83400E07801282B
:1047400011D1D9F80800C0F3002030B9286820F052
:10475000005000F10050286005E0286820F08050EB
:1047600000F180502860286820F0806000F18060AF
:104770002860286820F0004000F100402860E078C0
:10478000012806D1208B83B2227840466169FFF769
:1047900031FCBDE8F88F70B505462C68B4F1A04F28
:1047A00017D180212046FFF7A7FB182200212046C1
:1047B000FFF7A4FB142201212046FFF79FFB1422E0
:1047C00002212046FFF79AFB142203212046FFF71F
:1047D00095FB70BD70B50446002504F5B676F088EB
:1047E000012803D02046FFF763FD1CE094F8840104
:1047F000022802D0032811D109E0002084F88801A2
:10480000012204F5C4712046FFF732FD0AE00122BF
:1048100004F289112046FFF72BFD03E02046FFF745
:1048200047FD00BF00BF284670BD2DE9F047044694
:104830004FF00008C14600254FF4B770005B061228
:10484000082E4BD2DFE806F04A04090E4A4A4145D9
:10485000A16808688047054645E0A16888688047E8
:10486000054640E04FF4B770075D062F22D2DFE81F
:1048700007F003080D12171CA16808698047054658
:1048800021E0A1684869804705461CE0A168886965
:104890008047054617E0A168C8698047054612E0D1
:1048A000A168486A804705460DE0A168086A80470C
:1048B000054608E0606804F5B671826820469047B6
:1048C0004046BDE8F08700BF0DE02046FFF7F0FC52
:1048D00009E02046FFF7ECFC4046F2E72046FFF7F0
:1048E000E7FC4046EDE700BFB5B12888A0B14FF422
:1048F000B970005B80B129884FF4B970005B8142C8
:1049000001DA288802E04FF4B970005B81464A461C
:1049100020466968FFF7ACFC4046D2E770B5044614
:10492000002594F88401022802D0032811D100E068
:1049300000BF94F8870128B1D4F88C0140F0020040
:10494000C4F88C01022204F5C6712046FFF790FCE2
:1049500003E02046FFF7ACFC00BF00BF284670BD57
:1049600010B504466068006A20B160680521026ADB
:104970002046904710BD10B504466068006A20B11B
:1049800060680621026A2046904710BD2DE9F0417B
:104990008046D8F8006000253046FFF767FA0746E2
:1049A00046E007F00100002840D029463046FFF7D6
:1049B00000F9044604F0010088B140F63400805943
:1049C0000121A940884340F634018851012229463B
:1049D0003046FFF7E8F8E9B24046FFF772FB04F013
:1049E000080020B1082229463046FFF7DCF804F021
:1049F000100020B1102229463046FFF7D4F804F009
:104A0000400020B1402229463046FFF7CCF804F0A0
:104A1000020020B1022229463046FFF7C4F804F014
:104A2000800018B129464046FFF798FA6D1C7F08B0
:104A3000002FB6D1BDE8F08170B50446002504F51D
:104A4000B67694F8840103280BD1606804F5B6713A
:104A5000826820469047F08810B92046FFF71CFC7A
:104A600003E02046FFF724FC00BF00BF284670BDCE
:104A70002DE9F04105462E682F1D3046FFF70AFA52
:104A80000446706900F00100002864D104F00200BF
:104A900018B102213046FFF7FBF904F4802010B171
:104AA0003846FFF773FF04F4002010B1384600F0D9
:104AB00054F804F4805038B1384600F097F84FF4B9
:104AC00080513046FFF7E4F904F0080030B1384671
:104AD00000F002FA08213046FFF7DAF904F400503A
:104AE00038B13846FFF7E8FC4FF400513046FFF785
:104AF000CFF904F0100010B1384600F0D1F804F4FA
:104B0000801038B13846FFF72BFF4FF48011304644
:104B1000FFF7BEF904F4001038B13846FFF72BFF59
:104B20004FF400113046FFF7B3F904F0004038B1FC
:104B3000384600F0F7F94FF000413046FFF7A8F98A
:104B400004F4006038B1384600F0D0F94FF4006149
:104B50003046FFF79DF9BDE8F0812DE9F0410446AC
:104B6000D4F8008000264046FFF789F9074639E06F
:104B700007F00100A0B331464046FFF706F90546AD
:104B800005F0010040B1012231464046FFF7F7F839
:104B9000F1B22046FFF7F6FA05F00800C0B108228E
:104BA00031464046FFF7EBF8F1B22046FFF72AFB0B
:104BB00094F8860160B194F886112068D0F8000856
:104BC00061F30A102168C1F80008002084F886010A
:104BD00005F0100020B1102231464046FFF7CFF813
:104BE000761C7F08002FC3D1BDE8F0812DE9F0418C
:104BF0000646376807F500640025606820F001006C
:104C000060603046FFF7C7FD10213846FFF712F904
:104C100000BF0BE0FF2107F5106000EB451081603D
:104C200007F5306000EB451081606D1C042DF1D359
:104C30004FF0FF30A0614FF00110E061606920F09B
:104C40000100401C6061606920F00200801C60610E
:104C5000606920F0080008306061206920F00100E0
:104C6000401C2061206920F00200801C2061206926
:104C700020F008000830206100213846FFF735F9A0
:104C80003846FEF731FF012086F884017068006A1B
:104C900020B170680121026A30469047BDE8F0817A
:104CA0002DE9F0470746D7F8008000221021404642
:104CB000FFF7F5F8D8F82060C6F30A15C6F34349A4
:104CC00006F00F0000EB400101EBC00107F1BC0052
:104CD00000EB8104B9F1020F0ED1DDB1ABB206F0E9
:104CE0000F0240466169FFF7EBF860692844606194
:104CF000E0692844E0610DE0B9F1060F0AD1ABB2DA
:104D000006F00F0207F5BA714046FFF7D9F8E069DF
:104D10002844E061012210214046FFF7C0F8BDE8B9
:104D2000F0872DE9F0410446002704F5B675A88800
:104D3000D0B9E888C0B9A87800F07F0694F884015B
:104D4000032803D12046FFF7B3FA10E084F8866108
:104D50001EB1022084F8840102E0012084F884015D
:104D60002046FFF799FA02E02046FFF7A1FA3846FD
:104D7000BDE8F08170B50446002604F5B675A87844
:104D80002D490870A888002850D1E88800284DD106
:104D900094F88401022802D0032842D115E0264865
:104DA000007870B12448007884F88901032084F8E1
:104DB000840160680168204688472046FFF76CFA46
:104DC00002E02046FFF768FA2FE01B48007870B930
:104DD000022084F884011848007884F8890160680A
:104DE0004168204688472046FFF756FA18E094F8B5
:104DF00089011149097888420FD1606841682046CD
:104E000088470D48007884F8890160680168204669
:104E100088472046FFF740FA02E02046FFF73CFAB9
:104E200003E02046FFF744FA00BF02E02046FFF708
:104E30003FFA304670BD00006400002070B50446A3
:104E4000002504F5B676708801280AD184F8870118
:104E5000606804F5B6718268204690472046FFF7E7
:104E60001BFA284670BD2DE9F04104460D4627681F
:104E700005F0800050B105F07F0000EB400101EB30
:104E8000C00104F10C0000EB810609E005F07F0091
:104E900000EB400101EBC00104F1BC0000EB810616
:104EA00031463846FEF77CFF01207073BDE8F08183
:104EB0000A7802704A7842708B78CA7803EB022233
:104EC00042800B794A7903EB022282808B79CA797E
:104ED00003EB0222C280704710B504466068C069C7
:104EE00018B16068C1692046884710BD70B5044696
:104EF000256840F60800405900F0010088B194F898
:104F0000840184F88501042084F884012046FFF799
:104F1000C8FA6068006A20B160680221026A20460F
:104F2000904770BD70B50446256840F604004059AE
:104F300020F0010140F6040041512068FEF7B9FF5E
:104F400094F8850184F884016068006A20B1606883
:104F50000321026A2046904770BD101000F000F057
:104F6000011BFFFFFFFFFFFFFFFFFFFFFFFFFFFF33
:104F7000FFFFFFFFFFFFFFFFFFFFFFFFFFFFFFFF41
:104F8000FFFFFFFFFFFFFFFFFFFFFFFFFFFFFFFF31
:104F9000FFFFFFFFFFFFFFFFFFFFFFFFFFFFFFFF21
:104FA000FFFFFFFFFFFFFFFFFFFFFFFFFFFFFFFF11
:105F1000FFFFFFFFFFFFFFFFFFFFFFDFFFFFFFDFD1
:105F2000FFFFFFFFFFFFFFFFFFFFFFFFFFFFF7FE8A
:105F3000EFDEFFFFFFFFFFDFF79EEF5ECE7AA535B6
:105F400084104A6939E7190308820881086121240D
:105F5000AD55EF7DFFFFFFFFF7BFF7BFFFFFFFFF6F
:105F6000FFDFFFFFFFFFFFFFFFFFFFFFFFFFFFFF61
:105F7000FFFFFFFFFFFFFFFFFFFFFFFFFFFFFFFF31
:105F8000FFFFFFFFFFFFFFFFFFFFFFFFFFFFFFFF21
:105F9000FFFFFFFFFFFFFFFFFFFFFFFFFFFFFFFF11
:105FA000FFFFFFFFFFFFFFFFFFFFFFFFFFFFFFFF01
:105FB000FFFFFFFFFFFFFFFFFFFFFFFFFFFFFFFFF1
:105FC000FFFFFFFFFFFFFFFFFFFFFFFFFFFFFFFFE1
:105FD000FFFFFFFFFFFFFFFFFFFFFFFFFFFFFFFFD1
:105FE000FFFFFFFFFFFFFFFFFFFFFFFFFFFFFFFFC1
:105FF000FFFFFFFFFFFFFFFFFFFFFFFFFFFFFFFFB1
:10600000FFFFFFFFFFFFFFFFFFFFFFFFFFFFFFFFA0
:10601000FFFFFFFFFFFFFFFFFFFFFFFFFFFFFFFF90
:10602000FFFFFFFFFFFFFFFFFFFFFFFFFFFFFFFF80
:10603000FFFFFFFFFFFFFFFFFFFFFFFFFFFFFFFF70
:10604000FFFFFFFFFFFFFFFFFFFFFFFFFFFFFFFF60
:10605000FFFFFFFFFFFFFFFFFFFFFFFFFFFFFFFF50
:10606000FFFFFFFFFFFFFFFFFFFFFFFFFFFFFFFF40
:10607000FFFFFFFFFFFFFFFFFFFFFFFFFFFFFFFF30
:10608000FFFFFFFFFFFFFFFFFFFFFFFFFFFFFFFF20
:10609000FFFFFFFFFFFFFFFFFFFFFFFFFFFFFFFF10
:1060A000FFFFFFFFFFFFFFFFFFFFFFFFFFFFFFFF00
:1060B000FFFFFFFFFFFFFFFFFFFFFFFFFFFFFFFFF0
:1060C000FFFFFFFFFFFFFFFFFFFFFFFFFFFFFFFFE0
:1060D000FFFFFFFFFFFFFFFFFFFFFFFFFFFFFFFFD0
:1060E000FFFFFFFFFFFFFFFFFFFFFFFFFFFFFFFFC0
:1060F000FFFFFFFFFFFFFFFFFFFFFFDFFFFFDF3DB2
:10610000C679B5D79D358C928C929CF484514A897E
:10611000210300200000000000000000000000003B
:106120000001000000000001082100000021000023
:106130000000000000001061106162EBC5F7FFDF96
:10614000FFFFFFFFFFFFFFFFFFFFFFFFFFFFFFFF5F
:10615000FFFFFFFFFFFFFFFFFFFFFFFFFFFFFFFF4F
:10616000FFFFFFFFFFFFFFFFFFFFFFFFFFFFFFFF3F
:10617000FFFFFFFFFFFFFFFFFFFFFFFFFFFFFFFF2F
:10618000FFFFFFFFFFFFFFFFFFFFFFFFFFFFFFFF1F
:10619000FFFFFFFFFFFFFFFFFFFFFFFFFFFFFFFF0F
:1061A000FFFFFFFFFFFFFFFFFFFFFFFFFFFFFFFFFF
:1061B000FFFFFFFFFFFFFFFFFFFFFFFFFFFFFFFFEF
:1061C000FFFFFFFFFFFFFFFFFFFFFFFFFFFFFFFFDF
:1061D000FFFFFFFFFFFFFFFFFFFFFFFFFFFFFFFFCF
:1061E000FFFFFFFFFFFFFFFFFFFFFFFFFFFFFFFFBF
:1061F000FFFFFFFFFFFFFFFFFFFFFFFFFFFFFFFFAF
:10620000FFFFFFFFFFFFFFFFFFFFFFFFFFFFFFFF9E
:10621000FFFFFFFFFFFFFFFFFFFFFFFFFFFFFFFF8E
:10622000FFFFFFFFFFFFFFFFFFFFFFFFFFFFFFFF7E
:10623000FFFFFFFFFFFFFFFFFFFFFFFFFFFFFFFF6E
:10624000FFFFFFFFFFFFFFFFFFFFFFFFFFFFFFFF5E
:10625000FFFFFFFFFFFFFFFFFFFFFFFFFFFFFFFF4E
:10626000FFFFFFFFFFFFFFFFFFFFFFFFFFFFFFFF3E
:10627000FFFFFFFFFFFFFFFFFFFFFFFFFFFFFFFF2E
:10628000FFFFFFFFFFFFFFFFFFFFFFFFFFFFFFFF1E
:10629000FFFFFFFFFFFFFFFFFFFFFFFFFFFFFFFF0E
:1062A000FFFFFFFFFFFFFFFFFFFFFFFFFFFFFFFFFE
:1062B000FFFFFFFFFFFFFFFFFFFFFFFFFFFFFFFFEE
:1062C000FFFFFFFFFFFFFFFFFFFFFFFFFFFFFFFFDE
:1062D000FFDFF7BEFFDFFFDFD69A84304AAA2A0825
:1062E00021C721A729E81125006200620021006171
:1062F00000610041002100620062004100620883E9
:10630000088308A308A310E410E410C400420000AE
:1063100000000020002100200000000100000021FA
:10632000086239E8B5B7FFFFFFDFF7BEFFFFFFFFE9
:10633000F7BEFFFFFFFFFFFFFFFFFFFFFFFFFFFFB6
:10634000FFFFFFFFFFFFFFFFFFFFFFFFFFFFFFFF5D
:10635000FFFFFFFFFFFFFFFFFFFFFFFFFFFFFFFF4D
:10636000FFFFFFFFFFFFFFFFFFFFFFFFFFFFFFFF3D
:10637000FFFFFFFFFFFFFFFFFFFFFFFFFFFFFFFF2D
:10638000FFFFFFFFFFFFFFFFFFFFFFFFFFFFFFFF1D
:10639000FFFFFFFFFFFFFFFFFFFFFFFFFFFFFFFF0D
:1063A000FFFFFFFFFFFFFFFFFFFFFFFFFFFFFFFFFD
:1063B000FFFFFFFFFFFFFFFFFFFFFFFFFFFFFFFFED
:1063C000FFFFFFFFFFFFFFFFFFFFFFFFFFFFFFFFDD
:1063D000FFFFFFFFFFFFFFFFFFFFFFFFFFFFFFFFCD
:1063E000FFFFFFFFFFFFFFFFFFFFFFFFFFFFFFFFBD
:1063F000FFFFFFFFFFFFFFFFFFFFFFFFFFFFFFFFAD
:10640000FFFFFFFFFFFFFFFFFFFFFFFFFFFFFFFF9C
:10641000FFFFFFFFFFFFFFFFFFFFFFFFFFFFFFFF8C
:10642000FFFFFFFFFFFFFFFFFFFFFFFFFFFFFFFF7C
:10643000FFFFFFFFFFFFFFFFFFFFFFFFFFFFFFFF6C
:10644000FFFFFFFFFFFFFFFFFFFFFFFFFFFFFFFF5C
:10645000FFFFFFFFFFFFFFFFFFFFFFFFFFFFFFFF4C
:10646000FFFFFFFFFFFFFFFFFFFFFFFFFFFFFFFF3C
:10647000FFFFFFFFFFFFFFFFFFFFFFFFFFFFFFFF2C
:10648000FFFFFFFFFFFFFFFFFFFFFFFFFFFFFFFF1C
:10649000FFFFFFFFFFFFFFFFFFFFFFFFFFFFFFFF0C
:1064A000FFFFFFFFFFFFFFFFFFFFFFFFFFFFFFFFFC
:1064B000DEFB29450861004129866BEF7CB27CB385
:1064C000747274727492749274B37CD374B374B330
:1064D00074937CB37CB37492749274937472749357
:1064E0007492749274927492749274B3749274727B
:1064F00074937CD37CB37CB384D36BF03A8A006210
:10650000002100410041000000000020212494925D
:10651000FFDFFFFFFFDFFFDFFFFFFFFFFFFFFFFFEB
:10652000FFFFFFFFFFFFFFFFFFFFFFFFFFFFFFFF7B
:10653000FFFFFFFFFFFFFFFFFFFFFFFFFFFFFFFF6B
:10654000FFFFFFFFFFFFFFFFFFFFFFFFFFFFFFFF5B
:10655000FFFFFFFFFFFFFFFFFFFFFFFFFFFFFFFF4B
:10656000FFFFFFFFFFFFFFFFFFFFFFFFFFFFFFFF3B
:10657000FFFFFFFFFFFFFFFFFFFFFFFFFFFFFFFF2B
:10658000FFFFFFFFFFFFFFFFFFFFFFFFFFFFFFFF1B
:10659000FFFFFFFFFFFFFFFFFFFFFFFFFFFFFFFF0B
:1065A000FFFFFFFFFFFFFFFFFFFFFFFFFFFFFFFFFB
:1065B000FFFFFFFFFFFFFFFFFFFFFFFFFFFFFFFFEB
:1065C000FFFFFFFFFFFFFFFFFFFFFFFFFFFFFFFFDB
:1065D000FFFFFFFFFFFFFFFFFFFFFFFFFFFFFFFFCB
:1065E000FFFFFFFFFFFFFFFFFFFFFFFFFFFFFFFFBB
:1065F000FFFFFFFFFFFFFFFFFFFFFFFFFFFFFFFFAB
:10660000FFFFFFFFFFFFFFFFFFFFFFFFFFFFFFFF9A
:10661000FFFFFFFFFFFFFFFFFFFFFFFFFFFFFFFF8A
:10662000FFFFFFFFFFFFFFFFFFFFFFFFFFFFFFFF7A
:10663000FFFFFFFFFFFFFFFFFFFFFFFFFFFFFFFF6A
:10664000FFFFFFFFFFFFFFFFFFFFFFFFFFFFFFFF5A
:10665000FFFFFFFFFFFFFFFFFFFFFFFFFFFFFFFF4A
:10666000FFFFFFFFFFFFFFFFFFFFFFFFFFFFFFFF3A
:10667000FFFFFFFFFFFFFFFFFFFFFFFFFFFFFFFF2A
:10668000FFFFFFFFFFFFFFFFFFFFF7DFEFBE632C02
:1066900000000083322A6C117472747374726C93EC
:1066A0006C736C926C926CB374B374B474B4749471
:1066B0007494749474946C936C936CB36C936C93A7
:1066C0006C936C936C9374937493749374937493AA
:1066D00074936C9374B374B374B37CF47CF4A63980
:1066E0008D1529E800010021002100410041000032
:1066F00000216B4DDEFBF7BFFFDFFFDFFFDFFFFF9A
:10670000FFFFFFFFFFFFFFFFFFFFFFFFFFFFFFFF99
:10671000FFFFFFFFFFFFFFFFFFFFFFFFFFFFFFFF89
:10672000FFFFFFFFFFFFFFFFFFFFFFFFFFFFFFFF79
:10673000FFFFFFFFFFFFFFFFFFFFFFFFFFFFFFFF69
:10674000FFFFFFFFFFFFFFFFFFFFFFFFFFFFFFFF59
:10675000FFFFFFFFFFFFFFFFFFFFFFFFFFFFFFFF49
:10676000FFFFFFFFFFFFFFFFFFFFFFFFFFFFFFFF39
:10677000FFFFFFFFFFFFFFFFFFFFFFFFFFFFFFFF29
:10678000FFFFFFFFFFFFFFFFFFFFFFFFFFFFFFFF19
:10679000FFFFFFFFFFFFFFFFFFFFFFFFFFFFFFFF09
:1067A000FFFFFFFFFFFFFFFFFFFFFFFFFFFFFFFFF9
:1067B000FFFFFFFFFFFFFFFFFFFFFFFFFFFFFFFFE9
:1067C000FFFFFFFFFFFFFFFFFFFFFFFFFFFFFFFFD9
:1067D000FFFFFFFFFFFFFFFFFFFFFFFFFFFFFFFFC9
:1067E000FFFFFFFFFFFFFFFFFFFFFFFFFFFFFFFFB9
:1067F000FFFFFFFFFFFFFFFFFFFFFFFFFFFFFFFFA9
:10680000FFFFFFFFFFFFFFFFFFFFFFFFFFFFFFFF98
:10681000FFFFFFFFFFFFFFFFFFFFFFFFFFFFFFFF88
:10682000FFFFFFFFFFFFFFFFFFFFFFFFFFFFFFFF78
:10683000FFFFFFFFFFFFFFFFFFFFFFFFFFFFFFFF68
:10684000FFFFFFFFFFFFFFFFFFFFFFFFFFFFFFFF58
:10685000FFFFFFFFFFFFFFFFFFFFFFFFFFFFFFFE49
:10686000FFDFFFFFFFFFF7BF7C31214511046BCF36
:1068700074517CB37CD474B36C936C936C936CB391
:106880006C936C936C936C926C936C936C736C9331
:106890006C936C936C936C936C936C936C936C7221
:1068A0006C726C936C936C726C726C736C736C72B4
:1068B0006C726C726C936C9374B36C936C936CB3DA
:1068C000749374B374728CD44ACC1925006100217E
:1068D000002000000020084139A6DEBAFFFFFFDFDC
:1068E000FFFFFFFFFFFFFFFFFFFFFFFFFFFFFFFFB8
:1068F000FFFFFFFFFFFFFFFFFFFFFFFFFFFFFFFFA8
:10690000FFFFFFFFFFFFFFFFFFFFFFFFFFFFFFFF97
:10691000FFFFFFFFFFFFFFFFFFFFFFFFFFFFFFFF87
:10692000FFFFFFFFFFFFFFFFFFFFFFFFFFFFFFFF77
:10693000FFFFFFFFFFFFFFFFFFFFFFFFFFFFFFFF67
:10694000FFFFFFFFFFFFFFFFFFFFFFFFFFFFFFFF57
:10695000FFFFFFFFFFFFFFFFFFFFFFFFFFFFFFFF47
:10696000FFFFFFFFFFFFFFFFFFFFFFFFFFFFFFFF37
:10697000FFFFFFFFFFFFFFFFFFFFFFFFFFFFFFFF27
:10698000FFFFFFFFFFFFFFFFFFFFFFFFFFFFFFFF17
:10699000FFFFFFFFFFFFFFFFFFFFFFFFFFFFFFFF07
:1069A000FFFFFFFFFFFFFFFFFFFFFFFFFFFFFFFFF7
:1069B000FFFFFFFFFFFFFFFFFFFFFFFFFFFFFFFFE7
:1069C000FFFFFFFFFFFFFFFFFFFFFFFFFFFFFFFFD7
:1069D000FFFFFFFFFFFFFFFFFFFFFFFFFFFFFFFFC7
:1069E000FFFFFFFFFFFFFFFFFFFFFFFFFFFFFFFFB7
:1069F000FFFFFFFFFFFFFFFFFFFFFFFFFFFFFFFFA7
:106A0000FFFFFFFFFFFFFFFFFFFFFFFFFFFFFFFF96
:106A1000FFFFFFFFFFFFFFFFFFFFFFFFFFFFFFFF86
:106A2000FFFFFFFFFFFFFFFFFFFFFFFFFFFFFFFF76
:106A3000FFFFFFFFFFFFFFFFFFFFFFDFFFFFFFFF86
